:020000040800F2
:1000000060220120C1010008212C00080D280008F1
:100010001D2C0008A5030008ED2F000800000000BB
:10002000000000000000000000000000A12C0008FB
:10003000A903000800000000312C0008D12C0008A2
:10004000DB010008DB010008DB010008DB01000820
:10005000DB010008DB010008DB010008DB01000810
:10006000DB010008DB010008DB010008DB01000800
:10007000DB010008DB010008DB010008DB010008F0
:10008000DB010008DB010008DB010008DB010008E0
:10009000DB010008DB010008DB010008DB010008D0
:1000A000DB010008B52D0008DB010008DB010008BA
:1000B000DB010008DB010008DB010008DB010008B0
:1000C000DB010008DB010008DB010008DB010008A0
:1000D000DB010008DB010008DB010008DB01000890
:1000E000DB010008DB010008DB010008DB01000880
:1000F000DB010008DB010008DB010008DB01000870
:10010000DB010008DB010008DB010008DB0100085F
:10011000DB010008DB010008DB010008DB0100084F
:10012000DB010008DB010008DB010008DB0100083F
:10013000DB010008AD030008DB010008DB0100085B
:10014000DB010008DB010008DB010008DB0100081F
:10015000DB010008DB010008DB010008DB0100080F
:10016000DB010008DB010008DB010008DB010008FF
:10017000DB010008DB010008DB01000800000000D3
:10018000DB010008DB010008DB010008DB010008DF
:10019000DB010008DB010008DB010008DB010008CF
:1001A000DB010008DB010008DB010008DFF80CD0F0
:1001B00000F0E6F8004800473D7800086022012082
:1001C0000648804706480047FEE7FEE7FEE7FEE7F1
:1001D000FEE7FEE7FEE7FEE7FEE7FEE7A12D0008EB
:1001E000AD0100082DE9F05F0546002092469B46D0
:1001F00088460646814640241BE02846414647463D
:10020000224600F0ACF853465A46C01A914110D32A
:1002100011461846224600F093F82D1A67EB0108A4
:100220004F4622460120002100F08AF817EB000912
:100230004E41201EA4F10104DFDC484631462A4627
:100240004346BDE8F09F00000649074A086850434E
:1002500043F23902104408604008704701490860C1
:1002600070470000000000206D4EC64110B5431AD3
:10027000934209D28318881803E010F8011D03F88F
:10028000011D521EF9D210BD40EA01039B0703D0A5
:1002900009E008C9121F08C0042AFAD203E011F8C5
:1002A000013B00F8013B521EF9D210BDD2B201E071
:1002B00000F8012B491EFBD270470022F6E710B56B
:1002C00013460A4604461946FFF7F0FF204610BDC4
:1002D000421C10F8011B0029FBD1801A704710B591
:1002E000002200E0521C835C8C5CA34201D1002BF5
:1002F000F8D1D8B2E1B2401A10BD30B504460020A2
:10030000034600E05B1C934203D2E05CCD5C401BE3
:10031000F8D030BD30B50B46014600202022012424
:1003200009E021FA02F59D4205D303FA02F5491BC3
:1003300004FA02F52844151EA2F10102F1DC30BDD9
:10034000202A04DB203A00FA02F100207047914095
:10035000C2F1200320FA03F3194390407047202A8A
:1003600004DB203A21FA02F00021704721FA02F35F
:10037000D040C2F120029140084319467047000066
:10038000064C074D06E0E06840F0010394E80700E2
:1003900098471034AC42F6D3FFF70CFF689D010874
:1003A000889D0108FEE700007047000040F26C5095
:1003B000C2F2000000F0F2B90020704701F016B957
:1003C00080B540F26C50C2F2000000F021FE002027
:1003D00080BD000080B513460A46014640F26C50CD
:1003E000C2F2000000F0E8FC002818BF4FF0FF3018
:1003F00080BD000080B513460A46014640F26C50AD
:10040000C2F2000000F0F4FF002818BF4FF0FF30E8
:1004100080BD00002DE9F041D0F828E000F1180C73
:100420005CF82E308C681D68002D03D400EB8E051F
:10043000ED6A1DB10220BDE8F08100BFD4E900568D
:1004400041F6FF779D605D68BD4335435D600D6893
:10045000EE0740F00581AE0600F10B81690703D578
:10046000196841F080011960196841F080511960E4
:10047000BFF35F8F196841F000411960A468002143
:1004800094B341F6FF787646002A61D01F6835465E
:1004900027F000571F601F6847F080461E606E1CE3
:1004A000032E88BFEE1E5CF826301D6825F08055AF
:1004B0001D601D68002D61D400EB8605ED6A002DDE
:1004C0005CD1D4E9005701319D605D6825EA0805DB
:1004D0003D435D60BFF35F8F1D6845F000451D60C3
:1004E000A468002CD2D1B6461F68002A27F08047A6
:1004F00018BF07F180471F601A6842F000521A6067
:10050000C26B00EB8E03DA62C0F828E0EFF31082D2
:1005100072B6026C114401310164002062B6BDE87C
:10052000F08100BF00EB8605ED6A3DBBD4E90057C2
:1005300001319D605D6825EA08053D435D60BFF3BC
:100540005F8F1D6845F000451D60A468002CCAD06F
:100550001F68354627F000571F601F6827F0804648
:100560001E606E1C032E88BFEE1E5CF826301D68D0
:1005700025F080551D601D68002DD3D5013100295F
:100580003FF458AF481E032801F0030039D321F08F
:10059000030100BF5CF82E20BFF35F8F136823F0C8
:1005A000004313600EF10102032A88BFAEF103027B
:1005B0005CF82230BFF35F8F1F6827F000471F6091
:1005C000531C032B88BFD31E5CF82320BFF35F8F1F
:1005D000176827F0004717605A1C032A88BFDA1EE5
:1005E0005CF82230BFF35F8F1C6802F1010EBEF190
:1005F000030F88BFA2F1030E24F0004204391A60F1
:10060000C8D10CEB8E0100283FF414AF0968BFF38A
:100610005F8F0A68012822F000420A603FF40AAFA7
:100620000EF10101032988BFAEF103015CF821201E
:10063000BFF35F8F1368022823F0004313603FF479
:10064000F9AE481C032888BFC81E5CF82000BFF321
:100650005F8F016821F0004101600220BDE8F08158
:100660001E684F6926F440063E431E60AE067FF5C5
:10067000F5AE1E68096926F04066314319606907C6
:100680003FF5EEAEF0E60000EFF3108072B600BF6B
:10069000FEE70000B0B5044600F0A8FF054640F2B2
:1006A0002000C2F200000078611C18BF044400BFA3
:1006B00000F09CFF401BA042FAD3B0BD80B500F013
:1006C0000DF8000658BF80BD40F25000C2F2000095
:1006D0004068BDE880400AF0B9B90000D0F88C004D
:1006E00070470000024600294FF0010008BF704724
:1006F00012681368C3F3001381F82830136803F0FD
:1007000060034B62136820EA532381F8203013689A
:10071000C3F30043CB77136820EA53338B77136816
:10072000C3F300330B77136803F400638B61136822
:1007300003F480434B61136820EA93534B741368AE
:1007400020EAD35008741068C0B2C009C87310689A
:1007500000F4602088601068C0F380200871906900
:10076000C0F3400081F854009069C043C0B2C00992
:1007700081F84C00906900F0300008659069000C29
:1007800088649069C0F3800081F856009069C0F3D6
:10079000C00081F85500002070470000B0B5044645
:1007A000006841F21405415949060BD541198A6880
:1007B000520607D54020C0F201000860204600F034
:1007C0007FFB20684159C9070AD041198A68D207BE
:1007D00006D04FF001100860204600F0FDFD2068B3
:1007E00041F214014258120426D501448A681204C9
:1007F00022D5D4F8880040F00800C4F888000A68C0
:100800000868920406D448F280621040C4F88C0054
:100810000A600DE042F20002C0F27E021040C4F80D
:100820008C00886820F4C0308860E020C4F8840020
:100830002046FFF743FF2068816B09070AD5C06A8D
:1008400000F06000C4F89400204600F0DFF90020BA
:10085000C4F8940043F61441C4F20101086800038F
:1008600058BFB0BD4FF4002220460A60BDE8B0403A
:1008700000F0BCBD70B582B0002843D00446D0F86B
:10088000840028B92320C4F88400204600F022F90F
:100890000020019043F64400C4F2020001684FF4C6
:1008A000805641F480410160006800F4804001906E
:1008B000019843F60400C4F20100016821F400012C
:1008C00001602168A26803681A43026000688859C1
:1008D00040F00100885100F089FE054620688159EA
:1008E000C90713D000F082FE401BB0F5FA7FF5D99E
:1008F0000120E0220421C4F88810C4F8842002B04A
:1009000070BD00BF012002B070BD00BF016848F299
:100910000F12CFF62072114001F59C41016005686D
:100920000120FFF7B7FE20684FF64172056081692C
:1009300011408031816185690120FFF7ABFE20689D
:1009400041F218018561425843F62373CFF6DE0366
:100950001A4042F0087242F0040242504558012009
:10096000FFF798FE206800F580518D6142F280010A
:100970004FF48055C0F2C121415146590120FFF783
:1009800089FE2068E2680021465111605160916043
:10099000D160A261136800F5805C43F4801313609A
:1009A00002F12803D36016684FF48C4546F44006E4
:1009B00016609162D16211635163E361936A43F4FB
:1009C0008013936202F150035363966A46F4400623
:1009D0009662116551659165D1652362136D43F48B
:1009E0008013136502F17803D365166D46F4400653
:1009F00016659167D167C2F88010C2F884106362EF
:100A0000936F43F480139367C2F88420936F43F489
:100A100040039367A162CCF8102022694FF0004395
:100A2000116051609160D160C2E908111360556096
:100A3000566826F00046566002F12806A264D66089
:100A40009162D16211635163C2E912119362D5625E
:100A5000D06A20F00040D06202F15000E66450639A
:100A6000116551659165D165C2E91C111365556524
:100A7000566D26F000465665206502F17800D06577
:100A80009167D167C2F88010C2F88410C2E92611BC
:100A90009367D567D36F23F00043D3676065C2F8CF
:100AA00084202166C4E91A11C4E91611CCF80C207F
:100AB000606848F240038288C4F202031A6000684A
:100AC000102258600020C4F88810C4F8842002B0B6
:100AD00070BD00002DE9F04385B0006848F20001C8
:100AE000C4F20201884203D005B0BDE8F08300BF24
:100AF000002643F630000096C4F20200016800248C
:100B000041F0007101600168C4F2020401F000715B
:100B100000910099009601686D4641F08061016086
:100B200001684FF0020801F0806100910099009681
:100B300001684FF0030941F00061016001680B2773
:100B400001F00061009100990096016841F00401F4
:100B50000160016801F004010091009900960168AC
:100B600041F001010160016801F00101009100996B
:100B70000096016841F002010160016801F0020184
:100B8000009100990096016841F040010160006801
:100B9000294600F04000009000983220009004F5B3
:100BA0000060CDE90186CDF80C90049700F044FC7C
:100BB0008620CDE9000820462946CDE90269049740
:100BC00000F03AFC4FF40050CDE9000804F58060D5
:100BD0002946CDE90269049700F02EFC4FF420501D
:100BE000CDE9000804F5C0502946CDE90269049713
:100BF00000F022FC3D200521002201F023F93D20D8
:100C000001F00CF905B0BDE8F0830000704700006A
:100C10002DE9F04F85B00029044671D0D4F8840046
:100C2000232840F0C580D4F85CA004F1480858F8A7
:100C30002A90E26ED9F800000191002868D4C2F130
:100C40000400039004F17C0504F180004FF0000BD8
:100C5000002602902BE000BFD9F80000D9F8001060
:100C6000C0F30D40071F4FF0010B2167D9F8082092
:100C70000299BBB22846C9F8202000F029F9D4E92E
:100C8000180101303944C4E918010020C9F82000D6
:100C90000AF10100032888BFAAF1030058F8209048
:100CA0000136D9F800108246B1F1FF3F39DD0398D3
:100CB000864235D2BBF1000F32D1D9F80000C00511
:100CC00005D5D9F81800A067D9F81C006067D9F8D5
:100CD0000000800501D4286870B1D9F800008005B3
:100CE00044BF0020C4E918006769D9F80000C005B6
:100CF000B2D44FF0000BB9E74FF0000BC8E700BFCC
:100D0000D4F8880040F00100C4F8880050E000BF2B
:100D100000264FF0000BB618E66607D13BE000BF97
:100D20005046E26E8246B618E66634D0A76E0020C2
:100D30000DF11009049016E0A06D00284FF48C40CE
:100D400004BF44F20060C8F200006860BFF35F8F28
:100D5000286840F000402860781C032888BFF81EEF
:100D6000013E07460CD058F82750286A0028E3D1E6
:100D7000484600F07DF8049818B12862A860DBE7C7
:100D80000026E06EB04206D0206841F20801002241
:100D90004250C4E91A76BBF1010FC4F85CA007D138
:100DA000E06F019908600020E06705B0BDE8F08FB2
:100DB000012005B0BDE8F08FF0B581B005460068B0
:100DC0001C4603694FF4F86707EA821203F01C031C
:100DD00061F3CF22D1180131016100F007FC064612
:100DE000002700BF00F002FC801BB7EB104F09D1B9
:100DF00028680169C907F5D1406980B220600020E8
:100E000001B0F0BD012001B0F0BD00002DE9F041BE
:100E10000446006C40B3676C451E4FF0000803E0C9
:100E20000746013D681C1FD004EB8700C16A781C8F
:100E300000F00300002908BF0746F1D0E06807EB87
:100E4000870150F8310000280ED404EB8706F06AC1
:100E500000F0CAFA781C00F00307C6F82C80C4E939
:100E60001057013D681CDFD10020BDE8F081000073
:100E700010B582B0044646F6E420C0F6010007F043
:100E800019FC98B10346203020604BF20940C0F6AF
:100E90000000186120684FF4C06400900020002119
:100EA0004122019409F06AFF02B010BD40F25000E7
:100EB000C2F20000012101700020206002B010BDCC
:100EC00040F25000C2F20000406809F0BFBD0000CF
:100ED0004FF0000C42F820CDA2F808C0D0F800C0B6
:100EE0005381BCF1000F844618BFD1F800C0CCF884
:100EF00000200A60006868B917E000BF0289016835
:100F00001A440029028108BF70470A8908681A44F8
:100F10000A8150B1028901681A44028129B10A8903
:100F200008681A4400280A81E8D1704770B5002982
:100F30006CD00446D0F88400102867D120680D4694
:100F4000016848F20F12CFF6207211402A7C6B7CA8
:100F5000002AAA6808BF01F500011143002B6B6944
:100F6000EA7F08BF41F480011943AB7F41EA0241A7
:100F7000AA69002B2B7F08BF41F4005111432A7945
:100F800041EA033195F8203041EA8221002B6B6A57
:100F9000EA7B08BF41F40071194395F8283041EA13
:100FA000C21141EA0311016006680120FFF772FBDC
:100FB00020684FF641720660816995F84C3001EA6D
:100FC000020CAA6C002B4FEA024208BF80322B6D44
:100FD00095F8556043EA0C0395F856101A4395F8B6
:100FE0005450012E08BF42F00802012908BF42F008
:100FF0000402012D08BF42F00202826185690120CE
:10100000FFF748FB20688561002070BD012070BD9E
:10101000B0B504460068006920F01C0501F01EF818
:101020004DF20031CFF6CE614EF2BF120144C0F254
:10103000E402914204D845F0080520680561B0BD7E
:101040004FF24011CFF6E95147F63F020144C0F29A
:101050007D12914204D845F00C0520680561B0BDB1
:1010600047F60011CFF66C4145F600220144C0F26C
:1010700062229142E1D341F60071CFF60A21084481
:101080004FF27F01C0F2FA2188428CBF45F0100573
:1010900045F0040520680561B0BD00002DE9F0436E
:1010A00083B00446D0F884000125102840F0E68083
:1010B0002320C4F884002068A565C16B04F14808AA
:1010C00041F40271C163D0F80C1141F4003141F0D8
:1010D0006001C0F80C11D0F8101141F40311C0F8F0
:1010E00010110420A56EE06658F82570386A0028B3
:1010F0004FF00000019003D04FF48C4012E000BF8D
:1011000001A8FFF7B5FE0198002800F0BB80386207
:10111000B860A16D4FF48C40002904BF44F2006018
:10112000C8F200007860BFF35F8F386840F000407D
:1011300038606F1C032F88BFEF1E58F82750286AAD
:1011400040B901A8FFF794FE0198002800F0A080A4
:101150002862A860A06D4FF48C4600284FF48C40A4
:1011600004BF44F20060C8F200006860BFF35F8F04
:10117000286840F0004028607D1C032D88BFFD1EBC
:1011800058F82570386A40B901A8FFF771FE019838
:10119000002800F07F803862B860A06D44F20069DA
:1011A000C8F20009002808BF4E467E60BFF35F8F7B
:1011B000386840F0004038606F1C032F88BFEF1E76
:1011C00058F82750286A38B901A8FFF751FE01984E
:1011D000002865D02862A860A06D002818BF4FF4D1
:1011E0008C49C5F80490BFF35F8F286840F0004039
:1011F00028607D1C0020032D88BFFD1EE26E216843
:10120000824205D041F2080200238B50C4E91A50F3
:10121000086840F0080008600D680120FFF73AFAFE
:1012200020680560016841F0040101600568012043
:10123000FFF730FA206841F2180605600025029594
:10124000815941F480118151805902900120FFF7AA
:1012500021FA02982168885188598A1940F400506F
:101260008851885940F002008851506840F4D030CD
:1012700040F0C10050602320C4F88400284603B029
:10128000BDE8F0830420E26E21688242BAD1BFE754
:10129000032006E00220E26E21688242B2D1B7E765
:1012A00001203D46E26E21688242B1D0AAE70000EB
:1012B00070B582B00446D0F88400232852D1232090
:1012C000C4F88400206841F2180681194A6845F67E
:1012D0003E73CFF6FE731A404A60815921F40051E3
:1012E0008151815921F002018151016821F00401ED
:1012F000016005680120FFF7CDF920680560002531
:101300000195815941F4801181518059019001204A
:10131000FFF7C0F9019821688851086820F008009B
:1013200008600E680120FFF7B5F920680660A06C20
:10133000416841F000414160E06C416841F000418A
:101340004160206D416841F000414160606D41683D
:1013500041F0004141601020A565C4F88400284692
:1013600002B070BD0125284602B070BD10B504461C
:10137000A1B1D4F8840023281CBF012010BD486B04
:101380000122E0632046FFF745F878B1D4F88800E1
:1013900040F00200C4F88800012010BDD4F8880095
:1013A00040F00100C4F88800012010BDBFF34F8F4A
:1013B000A06A2168421C032A88BFC21E41F20400B1
:1013C000A2620144086940074FF0000042BF0422B6
:1013D0000A61086010BD000040F25000C2F2000037
:1013E000806809F033BB000009F072BF704700004D
:1013F00070B5044600684FF4F865066905EA821284
:1014000006F01C0661F3CF22911903319AB24261B2
:10141000016100F0EBF80546002600BF00F0E6F899
:10142000401BB6EB104F05D120680069C007F5D10D
:10143000002070BD012070BD2DE9F04F82B000F199
:101440003E4242F2004502F1FF77C4F202050A2251
:1014500043F6004E4FEAB726A84208BF0922C4F25D
:10146000010E092E38BF4FEAB722012500260027BA
:101470004FF00008009208E008F101080437B8F1C5
:10148000100F06F1020600F0A7800C6805FA08F9B3
:1014900014EA090FF0D0D1F804B003220BF0030CCA
:1014A000ACF10104B240012C6FEA020A10D8826844
:1014B000CC6802EA0A02B440224382604268CBF35D
:1014C000001422EA090204FA08F42243426005E00B
:1014D000BCF1030F02D14FF0030C20E0C2688C680E
:1014E00002EA0A02B4402243BCF1020FC26016D1E4
:1014F0006FF0030202EA58020244D2F820C007F05B
:101500001C050F230C69AB402CEA030304FA05F514
:101510002B431362D1F804B001250BF0030C0268D1
:101520000CFA06F302EA0A021A431BF4403F026077
:10153000A2D0002243F644030192C4F202031A68C7
:101540004FF6084C42F480421A601A68CFF6FF7CCE
:1015500002F480420192019A28F00302724452F888
:101560000C3007F00C050F24AC40A343009C04FA98
:1015700005F52B4342F80C30DEF808204B6842EAB0
:10158000090543F60C4CDC0258BF22EA0905CEF8E7
:101590000850C4F2010CDCF800209C0242EA090564
:1015A00058BF22EA0905CCF80050DEF804209C035D
:1015B00042EA090558BF22EA0905CEF80450DEF8D0
:1015C0000020DB0342EA090558BF22EA0905CEF8EC
:1015D0000050012550E700BF02B0BDE8F08F0000C9
:1015E000002A08BF090481617047000041F264705D
:1015F000C2F201000068704790F83D20202A1CBF0D
:1016000002207047242280F83D200268136823F0EE
:1016100001031360536A23F010035362536A1943A2
:101620005162116841F001011160202180F83D10E4
:101630000020704790F83D20202A1CBF02207047F0
:10164000242280F83D20026889B2136823F0010348
:101650001360D2F824C04FF6F07303EA0C03194369
:101660005162116841F001011160202180F83D10A4
:101670000020704770B5B8B3044690F83D0028B913
:10168000002084F83C00204600F0ECFA242084F886
:101690003D002068016821F001010160016841F40A
:1016A00000410160016821F40041016000F0DCFCB0
:1016B00048F28041C0F21E0140F60013D4F804E065
:1016C00088424FF00001C0F23D0348F2A16C4FF098
:1016D000000238BF01219842C0F2010C38BF01223C
:1016E000E64538BF0A460AB1012070BD4DF6836158
:1016F000C4F21B31A0FB01122168950C4B684FF41A
:10170000967623F03F0343EA9243754344F6D3565B
:101710004B60C1F262060B6AA5FB0656B50923F0C1
:101720003F03E64538BF950C6A1C1A430A62CA6932
:1017300048F2A0664CF6FF73C0F20106B64522EAF5
:1017400003020BD801384FEA4E03B0FBF3F001302F
:101750006FF31F30042898BF04201EE0A3680138EF
:1017600063B119230EFB03F3B0FBF3F001306FF309
:101770001F3078B100F5804008E000BF0EEB4E034B
:10178000B0FBF3F001306FF31F3028B100F50040DB
:1017900003E000BF012000E001201043C861086899
:1017A000D4E9072320F0C00010431843086088687C
:1017B00048F2FF3204F10C0690434CCE184310431C
:1017C000A5698860C86820F0FF0030432843C860DE
:1017D000086840F00100086000202021206484F89F
:1017E0003D10206384F83E0070BD00002DE9F043F9
:1017F00081B01F46164688460446FFF7F7FE94F868
:101800003D10202920D1054620688169890717D518
:10181000FFF7ECFE401B1928F6D900202021206399
:1018200084F83D1084F83E00216C022641F020012E
:10183000216484F83C00304601B0BDE8F08300BF6D
:1018400094F83C10012905D10226304601B0BDE8CC
:10185000F08300BF012184F83C100168C90703D15F
:10186000016841F001010160016821F4006101603B
:10187000212184F83D10102184F83E1000212164BC
:1018800066626785618D21850021CFF6FF71E16277
:10189000E16A11F5803F18BF012919D1016841F4AF
:1018A000807101604169DDF82090C90723D119F1E9
:1018B000010116D0B9F1000F46D000BFFFF796FE28
:1018C000401B484542D820684169C907F6D012E05C
:1018D0000829E3D0216B1229E0D0E3E74169C90769
:1018E00009D14169C90706D14169C90704BF4169E6
:1018F0005FEAC171F2D02169B1F5804F02D1FE21BA
:1019000061E000BF062101EAD811F03101614169AF
:10191000090757D4416919F1010201F480612FD000
:10192000002946D1B9F1000F00F04281FFF75EFEB9
:10193000401B484500F23E8120684169090741D4B7
:1019400041694905F2D534E0FFF750FE002020211F
:10195000206384F83D1084F83E00216C012641F09C
:1019600020012164216884F83C000868C00544BF58
:101970004FF400702064304601B0BDE8F08300BF32
:10198000B9B9416909071DD44169490511D44169B3
:10199000090717D4416949050BD44169090711D4D6
:1019A0004169490505D4416909070BD441694905D5
:1019B000E7D5016841F4007101606FF48061416115
:1019C0000420F8E0FF2101EA08010161416989076B
:1019D0003AD4416919F1010201F4806112D051BB7E
:1019E000B9F1000F00F0E080FFF700FE401B484512
:1019F00000F2DC8020684169890725D441694905E6
:101A0000F2D518E0B9B9416989071DD44169490582
:101A100011D44169890717D4416949050BD441693B
:101A2000890711D44169490505D4416989070BD457
:101A300041694905E7D5016841F4007101606FF41F
:101A4000806141610420B6E0002600964169009162
:101A5000816900910099218D002900F0958009F19C
:101A60000108014651F8142F120635D4B8F1000FC1
:101A700016D0B9F1000F00F0AF8000BF0868400534
:101A800000F1B280FFF7B2FD401B484500F2A9808B
:101A90002068014651F8142F1206EFD51CE000BF54
:101AA0000A68520500F1A0800A68120614D40A6878
:101AB000520500F199800A6812060DD40A68520591
:101AC00000F192800A68120606D40A68520500F1F5
:101AD0008B800A681206E3D5636A194611F8012B58
:101AE00002616162618D01396185278D0146A7F12F
:101AF000010CA4F828C051F8142F52070DD55FEA45
:101B00000C420AD05A78A7F1020C02619A1C626258
:101B1000628D013A6285A4F828C00A6852072FD462
:101B2000B8F1000F14D0B9F1000F7BD00868400560
:101B300000F18080FFF75AFD401B484577D82068A8
:101B4000014651F8142F5207F0D5B4F828C017E019
:101B50000A6852056ED40A68520711D40A68520501
:101B600068D40A6852070BD40A68520562D40A681E
:101B7000520705D40A6852055CD40A685207E7D5B3
:101B80005FEA0C417FF46DAF016841F400710160C0
:101B9000202084F83D0084F83E6084F83C603046A4
:101BA00001B0BDE8F08300BFFFF720FD202002E078
:101BB000FFF71CFD202000212022216384F83D2016
:101BC00084F83E10226C01261043206484F83C10F7
:101BD000304601B0BDE8F0830868400504D4FFF743
:101BE00005FD202004E000BF6FF480600860042041
:101BF00000212022216384F83D2084F83E10226CCD
:101C00001043206484F83C10206C042825D12068FF
:101C10000126016841F400710160304601B0BDE861
:101C2000F08300BF0868400504D4FFF7DFFC2020E4
:101C300004E000BF6FF480600860042000212022CF
:101C4000216384F83D2084F83E10226C1043206408
:101C500084F83C10206C0428D9D00126304601B00D
:101C6000BDE8F083B0B586B0016845F20040C4F22B
:101C70000000814202D006B0B0BD00BF002443F690
:101C800030050194C4F20205296800F5D83041F00E
:101C900002012960296801F00201019101994FF4C4
:101CA000407101911221CDE9021403210491042114
:101CB000059101A9FFF7C0FB0094286940F40010CA
:101CC0002861286900F400100090009806B0B0BDAB
:101CD00040F2200041F26471C2F20000C2F2010140
:101CE00000780A68104408607047000080B543F629
:101CF0000040C4F20200016841F400710160016813
:101D000041F480610160016841F480710160032049
:101D100000F0C4F80F2000F005F800F05DF8002096
:101D200080BD0000B0B586B0002543F644010195A2
:101D3000C4F202010A68044642F001020A6009681E
:101D400001A801F0010101910199694600F066F9CD
:101D500000F09EF94DF683614000C4F21B31A0FBF8
:101D600001014FF0FF3000EB914140F27060002222
:101D7000C2F20000C4F2010240F2E733C0E90021E0
:101D8000C0E902530561856100F08AFB054618B180
:101D9000284606B0B0BD00BF40F27060C2F200003D
:101DA00000F0AEFB05460028F2D1192000F036F80D
:101DB0000F2C0DD8192021460022002500F042F8F2
:101DC00040F22400C2F200000460284606B0B0BD14
:101DD0000125284606B0B0BD82B0002043F6400180
:101DE0000190C4F202014A6842F480424A604A68A3
:101DF00002F480420192019A00900868002240F0AB
:101E00008050086008680F2100F080500090009812
:101E10006FF0010002B000F015B80000002848BFC4
:101E20007047C1B200F01F00012202FA00F04EF22A
:101E30000012CEF2000242EAD10121F00301086053
:101E40007047000010B54EF60C5CCEF2000CDCF8CA
:101E50000030C3F3022E8EF00704042C28BF0424A4
:101E6000BEF103034FF0FF3E0EFA04F438BF002327
:101E7000A14399400EFA03F39A43114300F00F0275
:101E800000F160430901043A03F564436244002809
:101E900048BF02F10C03197010BD00004EF60C5142
:101EA000CEF200010A684FF6FF031A4060F30A22DF
:101EB00042F0806040F0FD70086070472DE9F0410D
:101EC000002800F08B8043F60808C4F2020804469C
:101ED000D8F8F8030D4600F00F00884207D288F8C2
:101EE000F853D8F8F80300F00F00A84276D1206824
:101EF000810717D5410705D5D8F8001041F4E05106
:101F0000C8F80010010705D5D8F8001041F4604169
:101F1000C8F80010D8F80010A26821F0F0011143B1
:101F2000C8F80010C0073FD1D8F8F80300F00F0040
:101F3000A84207D988F8F853D8F8F80300F00F0042
:101F4000A8424BD12068410707D5D8F80010E268B5
:101F500021F4E0511143C8F80010000708D5D8F863
:101F60000000216920F4604040EAC100C8F8000088
:101F700000F0A2F8D8F8001046F62422C1F30311AD
:101F8000C0F60102515C40F2440220FA01F140F235
:101F90002400C2F200000068C2F200021160FFF7E4
:101FA000C1FE0020BDE8F0816068811E022907D2D1
:101FB00058F8081C89015CBF0120BDE8F08111E0E0
:101FC000012807D158F8081C89035CBF0120BDE82F
:101FD000F08107E058F8081C890703D40120BDE808
:101FE000F08100BFD8F8001021F003010843C8F8C1
:101FF0000000FFF7FBFA064641F28837D8F80000E8
:10200000616800F00C00B0EB810F8DD0FFF7EEFAA5
:10201000801BB842F2D90320BDE8F0810F22026094
:1020200043F60802C4F20202136803F0030343609C
:10203000136803F0F0038360136803F4E053C36094
:10204000D2F800C04FF4E05303EADC030361D2F896
:10205000F80300F00F0008607047000040F24400F1
:10206000C2F200000068704740F2440043F60801E5
:10207000C2F20000C4F202010068096846F6342288
:10208000C1F38221C0F60102515CC84070470000D4
:1020900040F2440043F60801C2F20000C4F202011B
:1020A0000068096846F63422C1F34231C0F60102E5
:1020B000515CC8407047000010B543F60404C4F2F8
:1020C0000204606800F00C0142F200400829C0F2EE
:1020D000F40007D0042918BF10BD41F20020C0F25F
:1020E0007A0010BD216801F03F022168236849028F
:1020F000C3F3881106D4A1FB00010023FEF772F898
:1021000007E000BF41F20020C0F27A004843B0FB74
:10211000F2F021680222C1F3014102EB4101B0FB60
:10212000F1F010BD2DE9F04182B0002868D00446DE
:10213000007843F60006C007C4F202060BD0B06870
:1021400000F00C00042840F09F803068800302D526
:102150006068002854D0207880071AD5B06810F045
:102160000C0F09D0B06800F00C00082840F0A680E1
:102170007068400200F1A2803068800702D5E068F4
:1021800001283DD13068216920F0F80040EAC10003
:1021900030602078000737D4207840074CD4A569F8
:1021A00055B3B06800F00C00082840F0BB80012D4A
:1021B00026D07068E16900F480028A4220D1216A49
:1021C00000F03F028A421BD147F6C071626A0140AB
:1021D000B1EB821F14D1A16A4FF6FF73C903994373
:1021E00000F44032A1F580318A4209D1E16A00F061
:1021F0007060B0EB016F03D1002002B0BDE8F08148
:10220000012002B0BDE8F0816069002840F20000C2
:10221000C4F2472076D00121C0F8801EFFF7E6F90E
:10222000054600BF706F8007B6D4FFF7DFF9401B8B
:102230000228F7D9DDE000BF306C10F080580AD1D9
:1022400000200190306C40F080503064306C00F021
:1022500080500190019847F20007C4F200073868E7
:10226000C00541D4386840F480703860FFF7BEF98B
:10227000054600BF3868C00536D4FFF7B7F9401BE4
:102280000228F7D9B5E000BFB06800F00C000828BC
:1022900003D1706840023FF558AF6068B0F5803FE9
:1022A00007D0B0F5A02F40F08D80306840F480203A
:1022B0003060306840F4803030608DE0E0680028A5
:1022C00052D00020C4F2472001210160FFF78EF9AF
:1022D000054600BF306880073FF554AFFFF786F929
:1022E000401B0228F6D984E0A068012805D0052803
:1022F0004ED1306F40F004003067306F40F0010085
:1023000030674FE00021C0F8801EFFF76FF90546E7
:10231000706F80077FF540AFFFF768F9401B022818
:10232000F6D966E00027C4F2472700203866FFF799
:102330005DF9022D05460BD1306880015ED5FFF7AF
:1023400055F9401B02284FF00300F5D955E700BFAF
:10235000306880017FF550AFFFF748F9401B022835
:102360004FF00300F4D948E70020C4F247200021D1
:102370000160FFF73BF90546306880077FF509AF3C
:10238000FFF734F9401B02284FF00300F4D934E77B
:10239000316F002821F001013167316F21F0040114
:1023A00031674DD0FFF722F9054641F2883700BF6B
:1023B000306F800756D4FFF719F9401BB842F7D9A0
:1023C00017E000BF3168002821F4803131603168A6
:1023D00021F4802131604FD0FFF708F9054600BF96
:1023E000306880033FF5B7AEFFF700F9401B642863
:1023F000F6D9032002B0BDE8F08100BF04F11C054E
:102400002FCD084340EA8210D9034FF6FF72914363
:10241000A1F5803140EA056008437060012038660C
:10242000FFF7E4F8044600BF306880013FF5E4AEF2
:10243000FFF7DCF8001B02284FF00300F4D9DCE6BC
:10244000FFF7D4F8054641F2883700BF306F8007A8
:1024500008D5FFF7CBF8401BB8424FF00300F5D981
:10246000CBE600BFB8F1000F7FF499AE306C20F0DE
:102470008050306493E600BFFFF7B8F8054600BF10
:10248000306880037FF567AEFFF7B0F8401B642823
:102490004FF00300F4D9B0E6704700007047000029
:1024A000002804BF0120704710B5044690F83D0095
:1024B00028B9002084F83C00204600F01FF80220D4
:1024C00084F83D002068211D00F07AFC012084F88A
:1024D000460084F83E0084F83F0084F8400084F809
:1024E000410084F8420084F8430084F8440084F8F2
:1024F000450084F83D00002010BD0000704700003A
:1025000090F83D1001291CBF01207047022180F87E
:102510003D10006841F2FF72C168C4F200029042AF
:1025200041F00101C1600DDC40F2FF71C4F2000115
:10253000884215DCB0F1804F2AD040F20041C4F24D
:10254000000123E040F2FF31C4F20101884213DCB4
:1025500041F60001C4F20001884219D0002113E0C5
:1025600040F60001C4F20001884211D040F600415B
:10257000C4F200010AE000BF44F20001C4F201010C
:10258000884205D040F20041C4F20101884206D1E0
:10259000816801F00701062904BF00207047016827
:1025A00041F0010101600020704700007047000009
:1025B00010B5016804460869800744BFC8685FEA2F
:1025C000807039D40869400744BFC8685FEA40702A
:1025D0003ED40869000744BFC8685FEA007045D46C
:1025E0000869C00644BFC8685FEAC0604AD4086989
:1025F000C0071CBFC8685FEAC07051D108690006F7
:1026000044BFC8685FEA006052D40869400644BF0E
:10261000C8685FEA406053D40869800646BFC8684E
:102620005FEA806010BD6FF0200220460A61BDE8BD
:102630001040FFF733BF00BF6FF0020008610120B8
:1026400020778869800743D02046FFF7AFFF45E039
:102650006FF00400086102202077886910F4407F41
:1026600040D02046FFF7A2FF42E000BF6FF0080015
:10267000086104202077C86980073DD02046FFF715
:1026800095FF3FE06FF01000086108202077C869CF
:1026900010F4407F3AD02046FFF788FF3CE000BFAF
:1026A0006FF001000861204600F03EF82168A5E7C0
:1026B0006FF0800008612046FFF7EEFE2168A4E776
:1026C0006FF040000861204600F038F82168A3E769
:1026D000204600F025F8204600F024F8216800206C
:1026E00020776FE7204600F01BF8204600F01AF82C
:1026F0002168002020776CE7204600F011F8204682
:1027000000F010F821680020207769E7204600F0EB
:1027100007F8204600F006F821680020207766E7D9
:10272000704700007047000000680021C4F20101FA
:10273000884218BF7047FFF7CBBA0000704700000F
:10274000002804BF0120704710B5044690F83D00F2
:1027500028B9002084F83C00204600F021F824200D
:1027600084F83D002068C16821F40051C160204612
:1027700000F0C4FB2068016921F4904101614169C6
:1027800021F02A014161C16841F40051C16000207B
:102790002021206484F83D1084F83E1010BD000014
:1027A00080B586B0016844F60000C4F200008142A2
:1027B00002D006B080BD00BF002143F63002019177
:1027C000C4F20202136900F5E23043F4802313617E
:1027D000136903F480230193019B0191136843F073
:1027E00008031360126802F008020192019A4FF484
:1027F000407201920222CDE90221032104910721B6
:10280000059101A9FEF718FE06B080BDFEE70000A5
:1028100010B582B00446002100686369019101AAE5
:102820000121984700282DD42068636901AA01215D
:102830009847002826D49DF80400400702D40120C0
:1028400002B010BD2068636901AA002198470028E2
:1028500018D40199C80407D401F40450B0F5045FFA
:1028600014D1022002B010BD2068636901AA1F21A3
:102870009847002806D40198C10411D4062002B05C
:1028800010BD00BF6FF0040002B010BDC8054FF0CE
:10289000040058BF0520890448BF032002B010BDC2
:1028A00000F01C001828DCD0142805D0082814BF1C
:1028B0000520032002B010BD042002B010BD0000AE
:1028C000F0B581B0044640680021009170B1A06964
:1028D00080470546A0698047401BB0F5FA6FF9D9DB
:1028E000012000256060284601B0F0BDA0680028E6
:1028F00018BF8047202000256F460026206004E096
:102900006FF004050136202E0ED063693046122187
:102910003A4698470028F3D4009800F01F008642FA
:10292000F0D10025266000E026681F2E88BF6FF0DA
:102930000205002DD7D12369304600214FF4004213
:10294000984700281ED4206863696A46002198478A
:1029500000281DD4A069804706466F466FF0040525
:102960009DF801000006B2D5A0698047801BB0F534
:10297000FA7F13D82068636900213A4698470028F7
:10298000EED5B0E76FF00305284601B0F0BD00BFFB
:102990006FF00405284601B0F0BD00BF6FF00105DF
:1029A000284601B0F0BD000080B598B1CA688AB170
:1029B0008B687BB1D1F810C0BCF1000F0AD0D1E90F
:1029C00000E1C0E90432C0E902E1C0F818C000200B
:1029D00080BD00BF4FF0FF3080BD000080B542F6E3
:1029E000C54046F63C22C0F60000C0F601020021B8
:1029F00008F05EF840F26051C2F20001086080BD4C
:102A000070B586B0002543F6300005950095C4F2F8
:102A10000200016840F2004441F0040101600168D5
:102A2000C4F2020401F004010091009900950168CC
:102A3000002241F08001016001684FF4814601F0FD
:102A40008001009100990095016841F00101016049
:102A5000016801F00101009100990095016841F0C1
:102A600002010160016801F00201009100990095E6
:102A7000016841F008010160016801F0080100915E
:102A800000990095016841F04001016000684FF431
:102A9000814100F04000009000982046FEF7A0FD24
:102AA0000120CDE9020501A9204601960495FEF713
:102AB000C3FC06B070BD000080B540F21C6045F25A
:102AC0000041C2F20000C4F2000148F2A0620023FB
:102AD0004FF4804CC0F2010280E80E00C0E9033CD4
:102AE000C0E90533C0E90733FEF7C4FD002818BF6D
:102AF000FDF7CAFD40F21C60C2F200000021FEF7A3
:102B00007BFD002818BFFDF7BFFD40F21C60C2F23C
:102B100000000021FEF78EFD002808BF80BDBDE843
:102B20008040FDF7B1BD0000B0B584B000200021A9
:102B300000250FF0DBFC40F2B404C2F2000446F2C0
:102B40000D2022462346C0F60000256042F8045FAF
:102B500043F8085F42F2C15CCDE9005004F1300552
:102B6000C0F6010C28462146CDF808C007F09CFAB3
:102B7000284607F037FC94F86100400704D4284643
:102B800007F036FC03E000BF284607F0E1FC46F200
:102B90005901C0F60001284607F058FC0EA044F881
:102BA0000C0F00204FF480611022C4E90100C4E939
:102BB0000300C4E90512C4E9070046F25D00C0F64F
:102BC00000002946224607F073FF284604B0BDE8FE
:102BD000B04002F05FB800BF4574684C696E6B008E
:102BE00080B540F2B86044F60001C2F20000C4F2C1
:102BF000000100234FF00C0C4FF4E13280E80E008E
:102C0000C0E90333C0E905C3C361FFF799FD00289C
:102C100008BF80BDBDE88040FDF736BDFEE700007F
:102C2000FEE70000000000000000000000000000BF
:102C3000EFF30980BFF36F8F154B1A681EF0100F6A
:102C400008BF20ED108A20E9F04F10602DE909003F
:102C50004FF0500080F31188BFF34F8FBFF36F8F99
:102C600012F012FB4FF0000080F31188BDE809005C
:102C700019680868B0E8F04F1EF0100F08BFB0ECFC
:102C8000108A80F30988BFF36F8F704700BF00BFC1
:102C90001C010020000000000000000000000000F7
:102CA000074B19680868B0E8F04F80F30988BFF354
:102CB0006F8F4FF0000080F31188704700BF00BF96
:102CC0001C010020FFF730FF012007F075FCFBE737
:102CD00080B54EF21000CEF20000006813F030FB19
:102CE000012808BF80BDBDE8804012F0EDBB0000A8
:102CF000B0B592B0002443F64000CDE90A44CDE9D6
:102D000008440594CDE90344CDE901440094C4F29C
:102D100002000168022541F080510160006800F066
:102D200080500090009847F200000094C4F2000028
:102D3000016841F440410160006800F440400090A7
:102D40000098012006904FF4803007904FF48000E7
:102D50000D9004200E90A820CDE90F0507201190BA
:102D600006A80C95FFF7DEF920B1EFF3108072B6DC
:102D7000FEE700BF0F20CDE901054FF4A0500490FD
:102D80004FF48050059001A805210394FFF796F8B1
:102D900020B1EFF3108072B6FEE700BF12B0B0BDF5
:102DA0004EF68850CEF20000016841F470010160D7
:102DB0007047000040F27060C2F20000FFF7F8BBFD
:102DC00010B540F6FF3E0368C4F2000E40F2004C1E
:102DD0007045C4F2010C27DCB0F1804F31D040F2D5
:102DE0000042C4F2000290422BD040F60002C4F22E
:102DF0000002904225D041F6FF72C4F200029042D8
:102E000029DC70453CDCB0F1804F5FD040F20042DD
:102E1000C4F20002904259D040F60002C4F200020F
:102E2000904253D056E000BF40F60042C4F2000288
:102E3000904206D0604504D00022C4F201029042C4
:102E4000D9D14A6823F07003134341F6FF72C4F2EC
:102E500000029042D5DD43F6FF72C4F201029042B7
:102E600022DC42F20002C4F2000290422ED0002284
:102E7000C4F20102904229D0604527D02AE000BF69
:102E800040F60042C4F2000290421FD041F6000218
:102E9000C4F20002904219D041F60042C4F200028E
:102EA000904213D016E000BF44F20002C4F20102C7
:102EB00090420BD044F60002C4F20102904205D0C9
:102EC00044F20042C4F20102904203D1CA6823F4E2
:102ED0004073134323F080024B69D1F800E08C6803
:102EE0001A430260C46240F48062C0F828E0624580
:102EF00004BF096901630121416110BD10B5044699
:102F00000068D4E902C22369016921F440511143E8
:102F10000161626943EA0C01E3691143C268194324
:102F200049F20C639A431143C1604169A26921F4DB
:102F3000407141F20043114340F48062C4F2010346
:102F40009A42416102D1FFF7A3F801E0FFF78CF844
:102F5000E16963681922B1F5004FA0FB020123D19A
:102F60005A00DB0FFDF73EF948F21F51C5F2EB1195
:102F7000A0FB01235A094FF69C73C0F6FF7303F1BF
:102F8000805302FB0300322303EBC000A0FB0101CE
:102F90004FF4F87000EA111000EB0210C1F3421177
:102FA00008442168886010BD9A009B0FFDF71AF94C
:102FB00048F21F51C5F2EB11A0FB01235A094FF64D
:102FC0009C73C0F6FF7302FB0300322303EB001077
:102FD000A0FB0101F02000EA511000EB0210C1F348
:102FE000431108442168886010BD0000FEE700001E
:102FF000002800F0A7802DE9F04784B0446A054618
:10300000002C00F09C806079082840F098800868C7
:10301000E169884240F093800C20A4F8050000206C
:1030200020810DF10E0328462146042200F0E4FA27
:1030300000287DD08046BDF80E6040683F2E00F12C
:10304000F0090FD346F6E63047F22F7147F271735D
:10305000C0F60100C0F60101C0F6010340F29A5229
:1030600013F0ACFB701C322180B2042209F8061068
:1030700009F80020E069B11C1FFA81FAADF80E10C2
:1030800004F0C6FBBAF1410F07460FD346F6E6300F
:1030900047F2F56147F27173C0F60100C0F6010115
:1030A000C0F6010340F2B75213F088FB380EF11C52
:1030B00009F80A00380C89B209F80100711D321DA7
:1030C00089B2380A92B209F80170F11D09F80200BC
:1030D000B01D8BB282B2432B4FF0FF03ADF80E0050
:1030E00009F8023009D819FA81F0C6F13C01012231
:1030F00012FA81F1FDF7E1F84320F13081B2404648
:1031000008F068FA40F29820C2F20000406846F6E3
:103110006C2746F67022C0F60107C0F60102414650
:1031200043230095019711F029FB404608F0D0F8A1
:10313000A079FF281CBF0130A0711420208104B0A9
:10314000BDE8F08746F6E63047F2776147F27173E3
:10315000C0F60100C0F60101C0F6010340F28B3257
:1031600013F02CBB80B582B0002841D0416A002901
:103170004ED08B6A002248F6890C4A825A1CC8F647
:10318000880C0DD01E33A3FB0C324FEA521E4FF6B3
:10319000FF739E4538BF5309002B08BF01238B8264
:1031A000CB6A5A1C0FD003F11E02A2FB0C234FEA7C
:1031B000531E4FF6FF72964538BF5A09002A08BFC2
:1031C00001224A81CA810B6B5A1C31D003F11E02C5
:1031D000A2FB0C234FEA531C4FF6FF72944538BFF5
:1031E0005A09002A08BF01228A810A8221E000BF11
:1031F00046F6E63047F27173C0F601002DA1C0F625
:10320000010340F2154202B0BDE8804013F0D6BA87
:1032100046F6E63047F27173C0F601001FA1C0F612
:10322000010340F2174202B0BDE8804013F0C6BA75
:103230008A894B89013A92B29A423CBF00224A8164
:10324000CA790AB10A6A0CE091F91C20002A01D45B
:10325000FF2206E0D2B2C02A34BF4FF6FF726FF0F1
:103260007F424B6A0192009373B14A790A2A04D0D3
:103270000A22A1F8052000220A811C3101AA6B460E
:1032800007F032F802B080BDCB691A4042F080727C
:1032900000924A790A2AF0D0EAE700BF64686370B6
:1032A0005F62696E643A206468637020213D204E3D
:1032B000554C4C00646863705F62696E643A206EBE
:1032C0006574696620213D204E554C4C000000007D
:1032D00010B5446A6179082904D00821A4F80510C2
:1032E0000021218104F11C01002202F05FFCA07981
:1032F000FF281CBF0130A0710120208110BD0000FB
:103300002DE9F04F83B040F25020C2F20000046873
:10331000002C00F06D81012540F2224940F2324636
:103320000DF10A0A0AE000BF204601F0E5F8204648
:1033300001F0B0FC2468002C00F05A81D4F824B0CD
:10334000BBF1000FF6D09BF805000028F2D0BBF8C7
:10335000141039B1BBF81220013293B28B42ABF892
:103360001220E1D0BBF8101021B101390A04ABF8EA
:1033700010101FD0BBF80E100029DBD001390A0451
:10338000ABF80E10D6D10A28D4D805FA00F010EA0E
:10339000090FCFD0204601F089F9BBF80C00BBF82B
:1033A0001210401A0228A2BF80B24008ABF80E00EB
:1033B000C0E700BF0A28BDD805FA00F13142B9D0F4
:1033C000042805D00420ABF805000020ABF8080065
:1033D000204659460322534600F00EF9002800F01B
:1033E000DA80BDF80A9045688046B9F1410F0FD3E5
:1033F00046F6E63047F22F7147F27173C0F60100CE
:10340000C0F6010140F29A52C0F6010313F0D6F95A
:1034100009F1010005F1F006392180B2022206F817
:10342000091009F1020132548FB2258D432FADF8F6
:103430000A100FD346F6E63047F2BA6147F27173CD
:10344000C0F60100C0F6010140F2AE52C0F6010321
:1034500013F0B4F9280A09F10301F05509F1040049
:1034600089B2755485B2402DADF80A000FD346F6E7
:10347000E63047F22F7147F27173C0F60100C0F6D3
:10348000010140F29A52C0F6010313F097F9372177
:10349000715509F1060109F105008DB280B20322D0
:1034A000442D3254ADF80A100FD346F6E63047F2F9
:1034B000856147F27173C0F60100C0F6010140F268
:1034C000A652C0F6010313F079F909F1070087B29B
:1034D0000121442F7155ADF80A000FD346F6E630AE
:1034E00047F2856147F27173C0F60100C0F6010131
:1034F00040F2A652C0F6010313F060F909F108008A
:1035000085B20321442DF155ADF80A000FD346F6DC
:10351000E63047F2856147F27173C0F60100C0F6EC
:10352000010140F2A652C0F6010313F047F91C2135
:10353000715509F10A0109F109008AB2432A82B2E0
:103540004FF0FF034FF00105ADF80A00B35408D85F
:1035500016FA81F0C9F1390115FA81F1FCF7ADFED7
:103560004320F13081B2404608F034F840F2982010
:10357000C2F20000406846F670224146C0F60102E1
:103580004323009411F066F8404607F0A1FE40F294
:10359000224940F232469BF8060055FA80F1CAB241
:1035A0008A4201D0142014E04FF47A735A4340F257
:1035B000F31313FA82F244F6D353C0B2C1F262039A
:1035C00009284FF01400A2FB03238BF8061038BF24
:1035D0005809BBF81410BBF81220ABF80800891A80
:1035E0000229FFF6A7AE88B24008ABF81000A1E6AA
:1035F00003B0BDE8F08F00002DE9F04381B068B35F
:103600000C46B9B39146074636204FF49A714FF4F1
:103610002072984607F0DAFA00283DD00546408926
:1036200080084C280CD846F6E63047F27173C0F695
:10363000010046A1C0F6010340F2727213F0BEF819
:10364000B9F1030F02D16079032833D1A07948B3CF
:1036500040F26450C2F2000000682AE046F6E6300C
:1036600047F27173C0F6010050A1C0F6010340F2A9
:1036700069720AE046F6E63047F27173C0F601005F
:1036800042A1C0F6010340F26A7213F097F80025D8
:10369000284601B0BDE8F0830025284601B0BDE80A
:1036A000F08300BFFCF7D0FD40F26451C2F200018C
:1036B000086020606E684FF49971B01CFCF7FDFD46
:1036C00040F20110308097F830102068B17004F09B
:1036D0009FF8A9F10701022970600AD3B9F1040F1C
:1036E00007D0B9F1030F06D1607900F0FE0004287D
:1036F00001D17868F06097F82A00B8F1000F3077B0
:1037000097F82B00707797F82C00B07797F82D007A
:10371000F07797F82E0086F8200097F82F0086F8AB
:10372000F29086F8210048F26320C6F25330C6F8C2
:10373000EC0040F23510A6F8F0001CBF0320A8F8FA
:103740000000284601B0BDE8F08300BF64686370E4
:103750005F6372656174655F6D73673A2063686566
:10376000636B207468617420666972737420706280
:1037700075662063616E20686F6C64207374727567
:10378000637420646863705F6D736700646863705E
:103790005F6372656174655F6D73673A2064686327
:1037A0007020213D204E554C4C0000006468637031
:1037B0005F6372656174655F6D73673A206E6574EF
:1037C000696620213D204E554C4C00002DE9F04FFC
:1037D00083B0D0F824B081469BF80510002006295C
:1037E000CBF81C001EBF0621ABF80510ABF8080093
:1037F0000DF10A034846594601224FF00108FFF730
:10380000FBFE002800F0D3808246BDF80A704068B5
:10381000412F00F1F0050FD346F6E63047F22F7145
:1038200047F27173C0F60100C0F60101C0F6010352
:1038300040F29A5212F0C2FF781C392180B2022263
:10384000E955B91C2A548EB2B9F82840432EADF878
:103850000A100FD346F6E63047F2BA6147F27173A9
:10386000C0F60100C0F60101C0F6010340F2AE52FD
:1038700012F0A4FF200AF91CA855381D89B26C5417
:1038800084B2402CADF80A000FD346F6E63047F27A
:103890002F7147F27173C0F60100C0F60101C0F646
:1038A000010340F29A5212F089FF37212955B91DC0
:1038B000781D8EB280B20322442E2A54ADF80A102D
:1038C0000FD346F6E63047F2856147F27173C0F6D2
:1038D0000100C0F60101C0F6010340F2A65212F049
:1038E0006DFFF81D84B20121442CA955ADF80A00E2
:1038F0000FD346F6E63047F2856147F27173C0F6A2
:103900000100C0F60101C0F6010340F2A65212F018
:1039100055FF07F1080086B20321442E2955ADF862
:103920000A000FD346F6E63047F2856147F271731D
:10393000C0F60100C0F60101C0F6010340F2A65234
:1039400012F03CFF1C21A95507F10A0107F10900FB
:103950008BB282B2432B4FF0FF03ADF80A00AB5499
:1039600009D815FA81F0C7F13901012212FA81F163
:10397000FCF7A3FC4320F13081B2504607F02AFE49
:1039800040F29820C2F20000406846F66C2746F6E6
:103990007022C0F60107C0F6010251464323CDF85C
:1039A0000090019710F0EAFE504607F091FC9BF85A
:1039B0000610782058FA81F2D3B2934213D14FF413
:1039C0007A7707FA03F340F2F31717FA83F344F612
:1039D000D357C1F26207C9B2A3FB07378BF80620A1
:1039E000052938BF7809ABF8080003B0BDE8F08FAF
:1039F000F0B581B040F25020C2F200000468002C03
:103A00004ED00025012604E0013838812468002CBE
:103A100046D0676A002FF9D038890228F4D20128ED
:103A2000F4D178793D8101380B28EFD8DFE800F038
:103A3000080610060618061C06060618E6E700BF6C
:103A4000B879052820D8204600F03CFFDEE700BF0B
:103A5000B879012804D8204600F016F9D6E700BF4F
:103A60002046FFF7B3FED1E7B879012814D807F153
:103A70001C012046002202F099F8B879FF281CBFEB
:103A80000130B8713E81C1E7204600F035FD204687
:103A900001F000F9BAE700BF2046FFF763FBB5E786
:103AA00001B0F0BDB0B540F29825C2F20005EA7A47
:103AB00004460020C4E90800002A1CBFE869A0628F
:103AC000287B28B1286A6A7BE0623AB1686A09E01B
:103AD000A06A40086A7BE062002AF7D1A06AC0EBC6
:103AE000C000C0082063A87B0969E16130B1A86A01
:103AF00003F08EFE2062012001E000BF0020E07193
:103B0000E87B002808BFB0BDE86A03F081FE606270
:103B1000B0BD000010B50446406A41790C2904D0BC
:103B20000C21A0F805100021018146F66C21C0F699
:103B3000010120460A460B4606F0D6FB2046BDE8AA
:103B40001040FFF743BE000070B540F29822C2F269
:103B50000002937A002B08BF70BD0446466A906944
:103B60000D460021318103F053FE2969B0612046E2
:103B7000F161BDE8704000F0A5BE0000B0B540F2B4
:103B80009825C2F20005287858BB686858B146F6F7
:103B9000E63047F27173C0F6010016A1C0F60103CA
:103BA000E52212F00BFE10F0DFFC6860F0B1417A04
:103BB00046F66C2441F02001C0F601044172214612
:103BC000442210F07DF968682146432210F042FA41
:103BD000686843F62D71C0F60001002210F0D8FC91
:103BE000287801302870002040B2B0BDFF2040B2DC
:103BF000B0BD00BF646863705F696E635F706362CD
:103C00005F726566636F756E7428293A206D656D05
:103C10006F7279206C65616B00000000B0B5456A79
:103C200085B104466879C11E032904D3002808BF62
:103C3000B0BD0A2808D100212046A971BDE8B040D6
:103C400000F022B8B0BD00BF0D280CD346F6E63018
:103C500047F27173C0F6010006A1C0F6010340F2FD
:103C60006D3212F0ABFD00212046A971BDE8B040D5
:103C7000FFF7ACBD696E76616C696420646863703F
:103C80002D3E7374617465002DE9F04782B0D0F861
:103C900024A080469AF80500032805D00320AAF83E
:103CA00005000020AAF808000DF106034046514621
:103CB0000322FFF7A1FC002800F016818146BDF821
:103CC00006504068412D00F1F0060FD346F6E6306D
:103CD00047F22F7147F27173C0F60100C0F601017F
:103CE000C0F6010340F29A5212F068FD3921715575
:103CF000A91C681C8CB280B20227432C3754ADF843
:103D000006100FD346F6E63047F2BA6147F27173F8
:103D1000C0F60100C0F60101C0F6010340F2AE5248
:103D200012F04CFD291DE81C37558CB280B24022A0
:103D30003F2C3254ADF806100FD346F6E63047F26A
:103D40002F7147F27173C0F60100C0F60101C0F691
:103D5000010340F29A5212F031FD681D322180B207
:103D6000042231553254DAF81C00A91D8CB2ADF88A
:103D7000061003F04DFD412C07460FD346F6E63002
:103D800047F2F56147F27173C0F60100C0F6010118
:103D9000C0F6010340F2B75212F010FD380EE91DD3
:103DA0003055380C05F1080289B27054380A92B2C5
:103DB000B05405F10A0005F1090184B289B2402C22
:103DC0007754ADF806000FD346F6E63047F22F7170
:103DD00047F27173C0F60100C0F60101C0F601039D
:103DE00040F29A5212F0EAFC3721315505F10C01EC
:103DF00005F10B008CB280B20322442C3254ADF892
:103E000006100FD346F6E63047F2856147F271732C
:103E1000C0F60100C0F60101C0F6010340F2A6524F
:103E200012F0CCFC05F10D0087B20121442F315571
:103E3000ADF806000FD346F6E63047F2856147F24B
:103E40007173C0F60100C0F60101C0F6010340F233
:103E5000A65212F0B3FC05F10E0084B20321442CEB
:103E6000F155ADF806000FD346F6E63047F285610E
:103E700047F27173C0F60100C0F60101C0F60103FC
:103E800040F2A65212F09AFC1C21315505F11001A6
:103E900005F10F008BB282B2432B4FF0FF03ADF858
:103EA0000600B35409D816FA81F0C5F13301012296
:103EB00012FA81F1FCF701FA4320F13081B2484651
:103EC00007F088FB40F29820C2F20000406846F6F6
:103ED0007022C0F6010249464323CDF8008010F05D
:103EE000B9FB484607F0F4F99AF80610012050FA99
:103EF00081F2D3B293424FF0140012D14FF47A778B
:103F00007B4340F2F31717FA83F344F6D357C1F219
:103F10006207C9B2A3FB07378AF80620092938BF10
:103F20007809AAF8080002B0BDE8F0872DE9F04F43
:103F300085B040F2FC60C2F20000456814466E6A2B
:103F400086B3307970B360892C282BD360680178F0
:103F5000022927D195F83010A1B10139C9B295F8DD
:103F60002A20037F052928BF05219A421AD149B189
:103F700095F82B20437F9A4214D10131C9B202290E
:103F800040F06881406803F043FC3168884209D101
:103F900040F29820C2F200000021C0E902116089BD
:103FA0002C2805D2204607F093F905B0BDE8F08F24
:103FB000B4F80880F0204FF6FD7A002101912746E1
:103FC000798982B28A4225D33F68002FEAD0401A0D
:103FD0007A8983B29342A8EB01081BD33F68002F74
:103FE000E0D0801A798983B28B42A8EB020811D302
:103FF0003F68002FD6D0401A7A8983B29342A8EB4B
:10400000010807D33F68801A002FA8EB0208D7D118
:10401000C8E700BF1FFA88F182B28A42009280F09E
:1040200007817968039105E01FFA88F182B28A421C
:1040300080F0E08003991FFA80FB11F80B10FF2934
:1040400000F0D880D345ADD8B7F80AC00BF1010312
:10405000634507D2039A134493F800E03B290ED935
:1040600036E000BF3B682BB15B6893F800E03B296A
:1040700005D92DE04FF0000E3B2900F22980DFE842
:1040800001F01F21272F2727272727272727272723
:1040900027272727272727272727272727272727B0
:1040A00027272727272727272727272727272727A0
:1040B00027272727273B414D552727275B6300BF2D
:1040C000013082E0BEF1040F40F00081062240E0A2
:1040D0000EEB0B0050453FF665AF023075E000BFB8
:1040E000BEF1030F40F20281F344D3453FF65AAFCD
:1040F00007224FF0040932E0BEF1040F40F00281C4
:10410000032226E0BEF1010F40F00C810099F02956
:1041100040F0588100224FF001091CE0BEF1010F70
:1041200040F010814FF00109012214E0BEF1040FAC
:1041300040F0188102220CE0BEF1040F40F0228111
:104140004FF00409042206E0BEF1040F40F02A817A
:1041500005224FF00409F344D3453FF623AF40F264
:104160009821C2F2000101EB020A9AF80810002916
:104170004FF00001049124D10230029283B23846FC
:1041800004A94A4607F028F848457FF40BAFB9F177
:10419000010F07D0B9F1040F40F08C80049803F0B0
:1041A00037FB01E09DF8100001218AF8081040F269
:1041B0009821029AC2F20001B7F80AC001EB82010D
:1041C00008610BF102004FF6FD7A81B26145FFF400
:1041D0002BAFA0EB0C00A8EB0C0881B21FFA88F201
:1041E0009142BFF4DFAE3F68002F57D0796803914A
:1041F0001AE700BF40F29820C2F20000007AB8B17E
:1042000040F29820C2F200000169002202724FF0D1
:10421000EC0801294FF06C003FF4D1AE022913D015
:10422000032905D101204FF0EC0801906C20C6E66F
:1042300001994FF06C082C2000294FF000010191EA
:104240007FF4BDAED2E000BF00204FF06C080190BB
:104250002C20B4E695F82C20837F9A427FF4A2AEFE
:1042600003293FF48FAE95F82D20C37F9A427FF447
:1042700099AE04293FF486AE95F82E2090F82030B0
:104280009A427FF48FAE05293FF47CAE95F82F104B
:1042900090F8212091423FF475AE83E646F6E63071
:1042A00047F27173C0F601008EA1C0F6010340F21F
:1042B0009D6292E046F6E63047F27173C0F6010067
:1042C00083A1C0F601034FF4D26286E046F6E630E1
:1042D00047F26E6147F27173C0F60100C0F601014A
:1042E000C0F6010340F22E6277E000BF46F6E630EA
:1042F00047F27173C0F6010070A1C0F6010340F2ED
:1043000033626AE046F6E63047F26E6147F2717357
:10431000C0F60100C0F60101C0F6010340F241629F
:104320005BE000BF46F6E63047F2656147F2717325
:10433000C0F60100C0F60101C0F6010340F24F6271
:104340004BE000BF46F6E63047F2656147F2717315
:10435000C0F60100C0F60101C0F6010340F255624B
:104360003BE000BF46F6E63047F26E6147F27173FC
:10437000C0F60100C0F60101C0F6010340F2596227
:104380002BE000BF46F6E63047F26E6147F27173EC
:10439000C0F60100C0F60101C0F6010340F25D6203
:1043A0001BE000BF46F6E63047F26E6147F27173DC
:1043B000C0F60100C0F60101C0F6010340F26162DF
:1043C0000BE000BF46F6E63047F27173C0F601001D
:1043D00034A1C0F6010340F2516212F0EFF9204619
:1043E00006F076FF05B0BDE8F08F00BF40F29820E0
:1043F000C2F20000407A00283FF4D4AD40F2982089
:10440000C2F20000007D6168022815D0062821D084
:1044100005287FF4C7AD7079C21E032A2ED2686AC0
:10442000FFF740FB2846FEF79DFE204606F050FFB2
:1044300005B0BDE8F08F00BF707906287FF4B2ADFB
:104440002846FFF781FB204606F042FF05B0BDE895
:10445000F08F00BF707905283FF6A4AD012101FA65
:1044600000F010F03A0F3FF49DAD2846FFF752FBE5
:10447000204606F02DFF05B0BDE8F08F01287FF43F
:1044800091AD686AFFF70EFB95F831000007C9D5BA
:104490002846FEF71DFF204606F01AFF05B0BDE8CE
:1044A000F08F00BF6F7665726C6F616420696E205B
:1044B00066696C652F736E616D6500006C656E20BA
:1044C0003E3D206465636F64655F6C656E0000004F
:1044D000696E76616C6964206465636F64655F6CA6
:1044E000656E00006E657874207062756620776175
:1044F00073206E756C6C00002DE9F04F83B0446A38
:10450000002C00F0B28082466079002800F0AD8077
:10451000A16940F29828029100210A28C2F20008FD
:10452000C4F81210C4F80E10C4E90611C4E9081149
:10453000C4E90A1121637CD8012101FA00F010F4CA
:10454000866F76D00DF10603504621460722FFF70D
:1045500053F800286DD08146BDF8066040683F2EB4
:1045600000F1F0050FD346F6E63047F22F7147F21F
:104570007173C0F60100C0F60101C0F6010340F2FC
:104580009A5212F01BF9701C362180B20422A955F0
:104590002A540298B11C1FFA81FBADF8061003F0F3
:1045A00037F9BBF1410F07460FD346F6E63047F225
:1045B000F56147F27173C0F60100C0F60101C0F663
:1045C000010340F2B75212F0F9F8380EF11C05F869
:1045D0000B00380C89B26854711D321D89B2380A3B
:1045E00092B26F54F11DA854B01D8BB282B2432B0E
:1045F0004FF0FF03ADF80600AB5409D815FA81F06F
:10460000C6F13C01012212FA81F1FBF756FE43206C
:10461000F13081B2484606F0DDFFD8F8040002AA66
:1046200049464323CDF800A010F014F8484606F0A0
:104630004FFE46F66C21C0F6010150460A460B4675
:1046400005F052FE607900281EBF0020A4F8050086
:104650002081207948B198F8000048B1013801065E
:1046600088F800001AD00020207103B0BDE8F08F58
:1046700046F6E63047F2A67147F27173C0F60100C4
:10468000C0F60101C0F60103FF2212F097F898F876
:1046900000000138010688F80000E4D1D8F80400D1
:1046A0000FF094FF0020C8F80400DCE72DE9F04784
:1046B00082B0D0F824A080469AF80500052805D0DD
:1046C0000520AAF805000020AAF808000DF106034D
:1046D000404651460322FEF78FFF002800F0CE80AF
:1046E0008146BDF806704068412F00F1F0050FD3F8
:1046F00046F6E63047F22F7147F27173C0F60100BB
:10470000C0F60101C0F6010340F29A5212F056F8C9
:10471000781C392180B20222E955B91C2A548EB284
:10472000B8F82840432EADF806100FD346F6E63011
:1047300047F2BA6147F27173C0F60100C0F6010199
:10474000C0F6010340F2AE5212F038F8200AF91C0C
:10475000A855381D89B26C5484B2402CADF80600BF
:104760000FD346F6E63047F22F7147F27173C0F669
:104770000100C0F60101C0F6010340F29A5212F0A6
:104780001DF837212955B91D781D8EB280B203223C
:10479000442E2A54ADF806100FD346F6E63047F201
:1047A000856147F27173C0F60100C0F60101C0F6E1
:1047B000010340F2A65212F001F8F81D84B2012163
:1047C000442CA955ADF806000FD346F6E63047F263
:1047D000856147F27173C0F60100C0F60101C0F6B1
:1047E000010340F2A65211F0E9FF07F1080086B27A
:1047F0000321442E2955ADF806000FD346F6E630C6
:1048000047F2856147F27173C0F60100C0F60101FD
:10481000C0F6010340F2A65211F0D0FF1C21A955A9
:1048200007F10A0107F109008BB282B2432B4FF066
:10483000FF03ADF80600AB5409D815FA81F0C7F1B3
:104840003901012212FA81F1FBF737FD4320F130E3
:1048500081B2484606F0BEFE40F29820C2F2000047
:1048600040680AF1180249464323CDF800800FF052
:10487000F1FE0546484606F02BFD00E0FF259AF8BC
:104880000600012151FA80F2D3B293424FF0280181
:1048900012D14FF4FA677B4340F2F31717FA83F310
:1048A00044F6D357C1F26207C0B2A3FB07378AF8B8
:1048B0000620092838BF790968B2AAF8081002B0A2
:1048C000BDE8F0872DE9F04784B0002800F0A6810C
:1048D000D0F824908246B9F1000F00F0AF8199F82A
:1048E0000500012805D00120A9F805000020A9F83D
:1048F00008000DF10E03504649460322FEF77CFEE8
:10490000002800F067818046BDF80E604068412EA7
:1049100000F1F0040FD346F6E63047F22F7147F26C
:104920007173C0F60100C0F60101C0F6010340F248
:104930009A5211F043FF701C392180B20222A15516
:10494000B11C22548DB2BAF82870432DADF80E1068
:104950000FD346F6E63047F2BA6147F27173C0F6FC
:104960000100C0F60101C0F6010340F2AE5211F0A1
:1049700025FF380A6055301DF11C85B289B23F2DE4
:104980006754ADF80E000FD346F6E63047F22F71AC
:1049900047F27173C0F60100C0F60101C0F60103D1
:1049A00040F29A5211F00AFF701D322180B20422A7
:1049B00061552254D9F81C00B11D8DB2ADF80E100E
:1049C00002F026FF412D07460FD346F6E63047F2A8
:1049D000F56147F27173C0F60100C0F60101C0F63F
:1049E000010340F2B75211F0E9FE380EF11D605597
:1049F000380C06F1080289B26054380A92B2A05409
:104A000006F10A0006F1090185B289B23F2D67540B
:104A1000ADF80E000FD346F6E63047F22F7147F29D
:104A20007173C0F60100C0F60101C0F6010340F247
:104A30009A5211F0C3FE06F10B00362180B2042217
:104A400061552254D9F8180006F10C018DB2ADF869
:104A50000E1002F0DDFE412D07460FD346F6E6307C
:104A600047F2F56147F27173C0F60100C0F601012B
:104A7000C0F6010340F2B75211F0A0FE380E06F165
:104A80000D016055380C06F10E0289B26054380AE7
:104A900092B2A05406F1100006F10F0185B289B25E
:104AA000402D6754ADF80E000FD346F6E63047F2BE
:104AB0002F7147F27173C0F60100C0F60101C0F614
:104AC000010340F29A5211F079FE3721615506F147
:104AD000120106F111008DB280B20322442D22543E
:104AE000ADF80E100FD346F6E63047F2856147F277
:104AF0007173C0F60100C0F60101C0F6010340F277
:104B0000A65211F05BFE06F1130087B20121442F7B
:104B10006155ADF80E000FD346F6E63047F28561D9
:104B200047F27173C0F60100C0F60101C0F601033F
:104B300040F2A65211F042FE06F1140085B20321A4
:104B4000442DE155ADF80E000FD346F6E63047F29E
:104B5000856147F27173C0F60100C0F60101C0F62D
:104B6000010340F2A65211F029FE1C21615506F105
:104B7000160106F115008BB282B2432B4FF0FF03F2
:104B8000ADF80E00A35409D814FA81F0C6F12D0136
:104B9000012212FA81F1FBF790FB4320F13081B240
:104BA000404606F017FD40F29820C2F2000040682F
:104BB00046F66C2746F67022C0F60107C0F60102E1
:104BC00041464323CDF800A001970FF0D7FD4046A2
:104BD00006F07EFB99F80610012050FA81F2D3B25C
:104BE00093424FF0780013D14FF47A7707FA03F32A
:104BF00040F2F31717FA83F344F6D357C1F2620772
:104C0000C9B2A3FB073789F80620052938BF780900
:104C1000A9F8080004B0BDE8F08700BF46F6E6300A
:104C200047F27173C0F6010013A1C0F6010340F210
:104C3000771204B0BDE8F04711F0C0BD46F6E6308B
:104C400047F27173C0F6010004A1C0F6010340F2FF
:104C5000791204B0BDE8F04711F0B0BD646863702C
:104C60005F73656C6563743A206468637020213DEE
:104C7000204E554C4C000000646863705F73656C97
:104C80006563743A206E6574696620213D204E5537
:104C90004C4C000070B5A8B1044690F83100C00734
:104CA00024D146F6E63047F27173C0F6010037A111
:104CB000C0F601034FF43A7211F080FDF02040B2CB
:104CC00070BD00BF46F6E63047F2776147F2717378
:104CD000C0F60100C0F60101C0F6010340F2E72270
:104CE00011F06CFDF02040B270BD00BF208DB0F51A
:104CF000107F30D3656A0DB3287928B340F2982627
:104D0000C2F20006307878B946F6E63047F2A6716E
:104D100047F27173C0F60100C0F60101C0F601034D
:104D2000FF2211F04BFD30780138010630700BD1B5
:104D300070680FF04BFC0020706005E0342002F03A
:104D400097FF40B10546606228463421FBF7B5FA6B
:104D5000FEF714FF10B1FF2040B270BD94F831008F
:104D60000121400729710BD4687902284FF0000017
:104D70000AD00221288140B2A5F8051070BD00BFFD
:104D80002046FEF723FD002040B270BD6E657469B9
:104D900066206973206E6F742075702C206F6C64B0
:104DA000207374796C6520706F72743F000000008E
:104DB000B0B540F27045C2F20005297D044651B1FC
:104DC000A868A04207D1286818B106F081FA00202F
:104DD00028600020287595F82C0058B1286AA04258
:104DE00008D1A86918B106F073FA0020A861002064
:104DF00085F82C0095F8440058B1A86BA04208D162
:104E0000286B18B106F064FA00202863002085F8AA
:104E1000440095F85C0058B1286DA04208D1A86CF8
:104E200018B106F055FA0020A864002085F85C004F
:104E300095F8740058B1A86EA04208D1286E18B138
:104E400006F046FA00202866002085F8740095F8E0
:104E50008C0060B1D5F88000A04208D1A86F18B1CD
:104E600006F036FA0020A867002085F88C0095F837
:104E7000A40070B1D5F89800A0420AD1D5F89000EE
:104E800020B106F025FA0020C5F89000002085F832
:104E9000A40095F8BC0070B1D5F8B000A0420AD1CA
:104EA000D5F8A80020B106F013FA0020C5F8A80034
:104EB000002085F8BC0095F8D40070B1D5F8C80082
:104EC000A0420AD1D5F8C00020B106F001FA0020B6
:104ED000C5F8C000002085F8D40095F8EC0078B142
:104EE000D5F8E000A04218BFB0BDD5F8D80020B179
:104EF00006F0EEF90020C5F8D800002085F8EC0097
:104F0000B0BD00002DE9F04F85B00028CDE90112B9
:104F1000049000F08B804FF00A0B002A00F0B08064
:104F200040F2704C00230122C2F2000C00204FF02E
:104F3000000E4FF0000A4FF00A084FF00A090A214C
:104F4000039106E090463033F02B02F1020200F0AC
:104F500005830CEB0304257D1FFA88F10A29A2F1D1
:104F6000010608BF002D19D065B304996768096868
:104F7000B94204D1A168029FB94200F03D81012DE0
:104F80000ED15CF80310658A91B11FFA8AFA554573
:104F900028BFB34688BFAA4614E000BFB04611E060
:104FA000618A80B2814228BFB14688BF084609E0C5
:104FB0001FFA8EFE0399754528BF3146039188BFBD
:104FC000AE4600BF94F82C501FFA88F10A2908BF9A
:104FD000002DB7D0002DB6D00499E6690968B1421A
:104FE00004D1216A029EB14200F0C382012D0BD18F
:104FF000A169648D81B11FFA8AFA544528BF93468E
:1050000088BFA2469FE700BF618D80B2814228BF62
:10501000914688BF084696E71FFA8EFE03997445AD
:1050200028BF1146039188BFA6468CE740F2704620
:10503000C2F20006337D012B00F09E80002B40F071
:10504000C58096F82C404FF000080A20002C00F094
:10505000DB8003904FF00A0900204FF00A0B002379
:105060004FF0000C4FF0000E012C00F0A380748D67
:10507000744528BF4FF0010988BFA646DFE000BF96
:1050800040F2704C00200122C2F2000C00274FF0C9
:10509000000E00244FF00A084FF00A090A2103917C
:1050A00007E000BF90463030F02802F1020200F025
:1050B00055820CEB00031D7D1FFA88F60A2EA2F123
:1050C000010608BF002D15D045B30499D1F800A002
:1050D00059688A4500F09280012D0DD15CF80010CE
:1050E0005D8A89B1A4B2A54228BFB34688BF2C46C9
:1050F00014E000BFB04611E0598ABFB2B94228BFE0
:10510000B14688BF0F4609E01FFA8EFE0399754528
:1051100028BF3146039188BFAE4600BF93F82C509C
:105120001FFA88F10A2908BF002DBBD0002DBAD084
:105130000499DE690968B14200F01B82012D09D192
:1051400099695B8D71B1A4B2A34228BF934688BF11
:105150001C46A8E7598DBFB2B94228BF914688BF07
:105160000F46A0E71FFA8EFE0399734528BF11462C
:10517000039188BF9E4696E73368B6F812C0002BAD
:1051800018464FF0000E4FF0000B4FF00A0918BF01
:105190000A20039008BF4FF00A0B002B1CBF634688
:1051A000F44696F82C40012004B34FF00A08012C75
:1051B0007FF45DAFB569748DC5B39BB29C4228BFC7
:1051C0004FF0010B88BF234639E000BFB6F812E06C
:1051D0000A204FF0000903904FF00A0B00234FF014
:1051E000000C96F82C400120002CDED14FF0010875
:1051F00096F84440ACBB14E03246BAE1324610B2F5
:1052000005B0BDE8F08F00BF03904FF00A094FF0E2
:105210000A0B00234FF0000C4FF0000E96F84440AC
:10522000FCB996F85C00002845D114E01FFA8CFC0C
:10523000039A644528BF0122039288BFA44696F8CA
:105240004440B4FA84F56D09284209D04FF00208B1
:1052500096F85C0078BB96F8740000285FD148E0AF
:105260000CB3012C0CD1346BB6F8420094B19BB254
:10527000984228BF4FF0020B88BF034613E000BFDF
:10528000B6F84200704528BF4FF0020988BF864635
:1052900009E000BF1FFA8CFC039A604528BF022278
:1052A000039288BF844696F85C00B8F10A0F08BFE5
:1052B000002819D058B301280CD1B46CB6F85A00A4
:1052C000E4B19BB2984228BF4FF0030B88BF03465E
:1052D0001DE000BFB6F85A00704528BF4FF0030923
:1052E00088BF864613E000BF4FF0030896F87400AD
:1052F000A8B996F88C00002845D12EE01FFA8CFC46
:10530000039A604528BF0322039288BF844696F81B
:105310007400B8F10A0F08BF002819D058B301284B
:105320000CD1346EB6F87200E4B19BB2984228BF3B
:105330004FF0040B88BF03461DE000BFB6F87200B3
:10534000704528BF4FF0040988BF864613E000BFB0
:105350004FF0040896F88C00A8B996F8A40000282D
:1053600045D12EE01FFA8CFC039A604528BF042229
:10537000039288BF844696F88C00B8F10A0F08BFE4
:10538000002819D058B301280CD1B46FB6F88A00A0
:10539000E4B19BB2984228BF4FF0050B88BF03468B
:1053A0001DE000BFB6F88A00704528BF4FF0050920
:1053B00088BF864613E000BF4FF0050896F8A400AA
:1053C000A8B996F8BC00002845D12EE01FFA8CFC45
:1053D000039A604528BF0522039288BF844696F849
:1053E000A400B8F10A0F08BF002819D058B301284B
:1053F0000CD1D6F89040B6F8A200DCB19BB298422E
:1054000028BF4FF0060B88BF03461CE0B6F8A20089
:10541000704528BF4FF0060988BF864613E000BFDD
:105420004FF0060896F8BC00A8B996F8D4000028FA
:1054300041D15BE01FFA8CFC039A604528BF06222D
:10544000039288BF844696F8BC00B8F10A0F08BFE3
:10545000002819D038B301280CD1D6F8A840B6F8E6
:10546000BA00BCB19BB2984228BF4FF0070B88BF6F
:10547000034618E0B6F8BA00704528BF4FF0070998
:1054800088BF86460FE000BF4FF0070896F8D400AB
:1054900088B92BE01FFA8CFC039A604528BF0722CD
:1054A000039288BF844696F8D400B8F10A0F08BF6B
:1054B000002819D038B301280CD1D6F8C040B6F86E
:1054C000D200BCB19BB2984228BF4FF0080B88BFF6
:1054D000034618E0B6F8D200704528BF4FF008091F
:1054E00088BF86460FE000BF4FF0080896F8EC0032
:1054F00010E000BF1FFA8CFC039A604528BF082209
:10550000039288BF844696F8EC00B8F10A0F08BFF2
:10551000002821D010B3012812D1D6F8D870B6F8DF
:10552000EA00002F00F0A0809AB2904228BF4FF00E
:10553000090B01994FF6FF7288071AD413E000BFD8
:10554000B6F8EA00704528BF4FF0090901994FF6F7
:10555000FF7288070DD406E04FF0090801994FF655
:10556000FF72880705D4C80708D11FFA88F00A28F7
:1055700004D110B205B0BDE8F08F00BF0FFA88F477
:105580000A2C19DA40F2704104EB4400C2F2000127
:1055900001EBC000007D002848D046F6E63047F613
:1055A0001A03C0F601003DA1C0F6010340F28512C6
:1055B00011F004F93AE000BF0FFA89F0092817DC6E
:1055C00040F2704100EB4000C2F2000151F830009F
:1055D00060B146F6E63047F61A03C0F6010029A18D
:1055E000C0F6010340F26D1211F0E8F8C8460AE077
:1055F000DDF80C800FFA88F00A2804DB0FFA8BF034
:105600000928D846B5DC0FFA88F440F2704204EB62
:105610004401C2F2000252F8310002EBC10518B198
:1056200005F056FE00202860002028750498029B93
:1056300048B140F27042006804EB4401C2F200023B
:1056400002EBC101486040F2704104EB4400C2F239
:10565000000101EBC000002141828360424610B28C
:1056600005B0BDE8F08F00BF1FFA8CF2904203989E
:1056700028BF0920039001994FF6FF7288073FF574
:1056800078AF70E76172705F7461626C655B695DD1
:105690002E71203D3D204E554C4C00006172705FD4
:1056A0007461626C655B695D2E7374617465203D25
:1056B0003D204554484152505F53544154455F4545
:1056C0004D505459000000002DE9F04F85B039B31A
:1056D000466804463088B0F5807F1BD130790628B3
:1056E00018D17079042815D17088082812D18A46FB
:1056F0005AF8040FD6F80E700D46049720B3B1691E
:1057000006F10808814221D14FF001094FF0000B4A
:1057100020E000BF204605B0BDE8F04F05F0D8BD41
:1057200046F6E63047F2776147F61A03C0F6010005
:10573000C0F60101C0F6010340F28A2205B0BDE8BF
:10574000F04F11F03BB800BF06F108084FF0020916
:105750004FF0010B95F8300006280CD046F6E630E5
:1057600047F61A03C0F6010030A1C0F6010340F26B
:10577000A91211F023F8B7B33846294600F0F6FF16
:1057800088BB07F0F000E0282DD004A849462A463F
:10579000FFF7B8FB002826D481B2490040F27042DE
:1057A00011FA80F1C2F2000202EBC100022303757C
:1057B0008560D8F8003052F83170C360B8F8043012
:1057C00000210382418277B1016005F12A024FF482
:1057D000006C284639464346CDF800C000F0AAFCCC
:1057E000384605F075FDF088B0F5007F14D0B0F5AF
:1057F000807F15D1BBF1000F12D105F12A0104A859
:1058000002270290284642460B46CDE900A803979E
:1058100000F0C6FA04E000BF04A92846FDF7E8FB43
:10582000204605F055FD05B0BDE8F08F6E65746942
:10583000662D3E6877616464725F6C656E203D3DE5
:10584000204554485F4857414444525F4C454E0000
:1058500070B584B0164605460C4658B1E4B156B34F
:105860003068294600F082FFB0B346F66023C0F6E8
:10587000010347E046F6E63047F2776147F61A0340
:10588000C0F60100C0F60101C0F6010340F21E326D
:1058900010F094FF002CE2D146F6E63047F61A03EA
:1058A000C0F6010081A1C0F6010340F21F3210F0E2
:1058B00085FF002ED4D146F6E63047F60B0147F6B9
:1058C0001A03C0F60100C0F60101C0F601034FF44F
:1058D000487210F073FFC3E7306800F0F001E02970
:1058E0001CD10123ADF808305E23010E020C8DF8A7
:1058F0000A30C0F3062002AB8DF80B008DF80C20A7
:105900008DF80D1005F12A024FF400662846214655
:10591000009600F00FFC40B204B070BDD5E9011252
:105920004140114208D081B24FF6A962914203D0A2
:105930002E4656F80C0FA8B340F2685CC2F2000C79
:105940009CF8002040F2704E02EB4203C2F2000EBF
:105950000EEBC303197D022908D39968A94205D12A
:105960005968884202D12846214692E09EF81410D8
:10597000022909D3DEF80810A94205D1DEF8041087
:10598000884201D1002280E09EF82C1002290DD31C
:10599000DEF82010A94209D1DEF81C10884205D19A
:1059A000012272E0FC2040B204B070BD9EF84410A9
:1059B000022909D3DEF83810A94205D1DEF83410E7
:1059C000884201D1022260E09EF85C10022909D3CE
:1059D000DEF85010A94205D1DEF84C10884201D102
:1059E000032252E09EF87410022909D3DEF86810F1
:1059F000A94205D1DEF86410884201D1042244E0B6
:105A00009EF88C10022909D3DEF88010A94205D136
:105A1000DEF87C10884201D1052236E09EF8A41001
:105A2000022909D3DEF89810A94205D1DEF89410B6
:105A3000884201D1062228E09EF8BC10022909D331
:105A4000DEF8B010A94205D1DEF8AC10884201D1D1
:105A500007221AE09EF8D410022909D3DEF8C810F4
:105A6000A94205D1DEF8C410884201D108220CE019
:105A70009EF8EC10022911D3DEF8E010A9420DD1F6
:105A8000DEF8DC10884209D10922284621468CF82C
:105A9000002004B0BDE8704000F00EB82846314642
:105AA000224604B0BDE8704000F080B87120213D6E
:105AB000204E554C4C000000F0B585B040F27043CC
:105AC00002EB4202C2F2000303EBC206374617F8AC
:105AD000142F0C46012A05460DD846F6E63047F647
